S017000046696E616C42656568697665312E322E73726563DA
S11300000C94A7000C94C4000C94C4000C94C40079
S11300100C94C4000C94C4000C94C4000C94C4004C
S11300200C94C4000C94C4000C94C4000C94C4003C
S11300300C94C4000C94C4000C94C4000C94C4002C
S11300400C94C4000C94C4000C94C4000C94C4001C
S11300500C94C40000407A10F35A00A0724E1809A0
S11300600010A5D4E80000E87648170000E40B541B
S1130070020000CA9A3B000000E1F50500008096EA
S11300809800000040420F000000A086010000001C
S1130090102700000000E8030000000064000000D6
S11300A000000A00000000000100000000002C769F
S11300B0D888DC674F0823DFC1DFAE59E1B1B796BA
S11300C0E5E3E453C63AE651997696E8E6C2842617
S11300D0EB898C9B62ED407C6FFCEFBC9C9F40F2F3
S11300E0BAA56FA5F490055A2AF75C936B6CF9676F
S11300F06DC11BFCE0E40D47FEF520E6B500D0ED34
S1130100902E0300943577050080841E080000209B
S11301104E0A000000C80C333333330F986E128339
S11301201141EF8D2114893BE65516CFFEE6DB180D
S1130130D1844B381BF77C1D901DA4BBE4242032D2
S113014084725E228100C9F124ECA1E53D271124CB
S11301501FBECFE5D8E0DEBFCDBF10E0A0E6B0E023
S1130160E4E1FFE002C005900D92A637B107D9F78C
S113017020E0A6E7B0E001C01D92A038B207E1F785
S11301800E94A9020C9488070C940000B099FECF39
S113019028E180E090E0DC01C19A0000880F991FFB
S11301A0AA1FBB1FC1980000B09B03C00196A11DEC
S11301B0B11D215089F7689415F8B695A7959795C0
S11301C087951694D1F7BC01CD01805820917F000A
S11301D0222349F020E0C19A0000C1982F5F30919A
S11301E07F002317C0F30895CF92DF92EF92FF921E
S11301F00E94C6000E944D046B017C01609177004F
S1130200709178008091790090917A000E944F0457
S11302109B01AC01C701B6010E946903FF90EF90F6
S1130220DF90CF9008950E94F40020917B003091DC
S11302307C0040917D0050917E000E94DB03089574
S11302408038910521F481E080937F0010C08034D0
S1130250910521F483E080937F0009C0809721F405
S113026082E080937F0003C081E080937F00C19887
S11302700E94C6000895CF92DF92EF92FF926B0125
S11302807C0120E030E040E85FE30E94D60388234D
S113029044F40F2EC12CD12CF0E8EF2EFFE3FF2EF7
S11302A0F02DC0927B00D0927C00E0927D00F09211
S11302B07E00FF90EF90DF90CF9008958F929F92F1
S11302C0AF92BF92CF92DF92EF92FF920F931F9360
S11302D04A015B0168017901B99AC198B89890E024
S11302E00E942001C501B4010E943B01C092770025
S11302F0D0927800E0927900F0927A001F910F91E9
S1130300FF90EF90DF90CF90BF90AF909F908F9031
S1130310089594EA96BF06B607FEFDCF91B1987F83
S1130320983011F0903179F483B984E886BF06B629
S113033007FEFDCF91B1987F983139F081E0903478
S113034029F480E0089581E0089580E0089584E927
S113035086BF06B604FCFDCF089583B984E886BF42
S113036006B607FEFDCF91B1987F81E0983209F47B
S113037080E00895CF93DF93C82F8EE40E94890113
S1130380DC2FD07F8091760084608D2B0E94AD019C
S11303908FEC97E00197F1F700C0000080917600A0
S11303A08D2B0E94AD018FEC97E00197F1F700C00F
S11303B0000090E1C99FE0011124809176008460DF
S11303C08C2B0E94AD018FEC97E00197F1F700C0F0
S11303D00000809176008C2B0E94AD018FEC97E099
S11303E00197F1F700C000000E94A701DF91CF91AF
S11303F00895CF93C82F8EE40E948901C07F809115
S1130400760084608C2B0E94AD018FEC97E00197FD
S1130410F1F700C00000809176008C2B0E94AD01A2
S11304208FEC97E00197F1F700C000000E94A7014C
S1130430CF9108958093760080E30E94F90180E3D0
S11304400E94F90180E30E94F90180E20E94F9010F
S11304508FE39CE90197F1F700C0000088E20E9455
S1130460BA018CE00E94BA0186E00E94BA0181E0E0
S11304700E94BA010895CF93DF93C82F8EE40E949F
S11304808901DC2FD07F80917600D82B8D2F856059
S11304900E94AD01DA7F809176008D2B0E94AD0120
S11304A080E1C89F90011124C0917600C560C22BE1
S11304B08C2F0E94AD012C2F2A7F80917600822BF5
S11304C00E94AD010E94A701DF91CF91089562308F
S11304D031F0633031F0613029F4805C03C08C5E0C
S11304E001C08C5A80680E94BA01089581E00E947C
S11304F0BA0108951F93CF93DF930097B1F0EC01F5
S113050010E007C0FE01E20FF31F80810E943B024E
S11305101F5F212F30E0FE0101900020E9F73197A1
S1130520EC1BFD0B2E173F0768F3DF91CF911F9152
S1130530089580E487B987E886B9089597B1987FCC
S11305408770892B87B9369A3699FECF84B195B1D5
S11305500895CF93DF93CDB7DEB7C456D1090FB654
S1130560F894DEBF0FBECDBF81E084BB8C9AD598D2
S11305700E9499022FE738E381E021503040804007
S1130580E1F700C000008D9A1DBC1CBC83EC99E00F
S113059097BD86BD82E88FBD8BE18EBD78940091B6
S11305A064001091650020916600309167004091CD
S11305B060005091610060916200709163008091CD
S11305C068000E945E010F2EFFEACF2ED12CF02D81
S11305D00F2EFCE2EF2EFF24F394F02D88E00E940E
S11305E01A020E94760260E080E00E9467020E9484
S11305F0130120E030E040E452E40E9469038E01DC
S11306000F5F1F4F23E043E00E94FF0489E690E060
S11306100E947A02C8010E947A0282E790E00E9456
S11306207A029FEF24E33CE0915020403040E1F710
S113063000C0000080E00E949E02843F914018F4B4
S1130640FBBCEABC02C0DBBCCABCCD9B40C03FEFD4
S113065083ED90E3315080409040E1F700C000000A
S1130660949A2AEA36EE86E991E02150304080409F
S11306709040D9F7000094982FEF31E18AE7215098
S113068030408040E1F700C00000949A9AEA26EED8
S113069036E981E09150204030408040D9F7000095
S11306A094989FEF21E13AE7915020403040E1F7E0
S11306B000C00000949A8AEA96EE26E931E081505F
S11306C0904020403040D9F70000949887CF949808
S11306D085CF5058BB27AA270E9481030C94C504D8
S11306E00E94B70438F00E94BE0420F039F49F3F02
S11306F019F426F40C94B4040EF4E095E7FB0C947E
S1130700AE04E92F0E94D60458F3BA1762077307A0
S11307108407950720F079F4A6F50C94F8040EF4F8
S1130720E0950B2EBA2FA02D0B01B90190010C01FD
S1130730CA01A0011124FF27591B99F0593F50F415
S1130740503E68F11A16F040A22F232F342F44276D
S1130750585FF3CF469537952795A795F040539565
S1130760C9F77EF41F16BA0B620B730B840BBAF035
S11307709150A1F0FF0FBB1F661F771F881FC2F7A0
S11307800EC0BA0F621F731F841F48F487957795B4
S11307906795B795F7959E3F08F0B0CF9395880F6E
S11307A008F09927EE0F9795879508950E948A047B
S11307B008F481E008950E94EF030C94C5040E949C
S11307C0BE0458F00E94B70440F029F45F3F29F0BA
S11307D00C94AE0451110C94F9040C94B4040E94CA
S11307E0D60468F39923B1F3552391F3951B550B64
S11307F0BB27AA2762177307840738F09F5F5F4FF0
S1130800220F331F441FAA1FA9F335D00E2E3AF02E
S1130810E0E832D091505040E695001CCAF72BD046
S1130820FE2F29D0660F771F881FBB1F2617370797
S11308304807AB07B0E809F0BB0B802DBF01FF27C9
S113084093585F4F3AF09E3F510578F00C94AE04F4
S11308500C94F9045F3FE4F3983ED4F386957795BE
S11308606795B795F7959F5FC9F7880F911D969582
S1130870879597F90895E1E0660F771F881FBB1FDE
S1130880621773078407BA0720F0621B730B840B8B
S1130890BA0BEE1F88F7E0950895E89409C097FB1A
S11308A03EF490958095709561957F4F8F4F9F4F43
S11308B09923A9F0F92F96E9BB279395F695879587
S11308C077956795B795F111F8CFFAF4BB0F11F44A
S11308D060FF1BC06F5F7F4F8F4F9F4F16C08823F1
S11308E011F096E911C0772321F09EE8872F762F27
S11308F005C0662371F096E8862F70E060E02AF068
S11309009A95660F771F881FDAF7880F9695879553
S113091097F90895990F0008550FAA0BE0E8FEEF28
S113092016161706E807F907C0F012161306E407AF
S1130930F50798F0621B730B840B950B39F40A26A8
S113094061F0232B242B252B21F408950A2609F486
S1130950A140A6958FEF811D811D089597F99F678A
S113096080E870E060E008959FEF80EC0895002433
S11309700A941616170618060906089500240A9400
S113098012161306140605060895092E0394000C86
S113099011F4882352F0BB0F40F4BF2B11F460FF15
S11309A004C06F5F7F4F8F4F9F4F089557FD90583E
S11309B0440F551F59F05F3F71F04795880F97FB1F
S11309C0991F61F09F3F79F08795089512161306D9
S11309D01406551FF2CF4695F1DF08C01616170608
S11309E01806991FF1CF869571056105089408953D
S11309F0E894BB2766277727CB0197F90895EF92F0
S1130A000F931F93CF93DF93E80147FD02C034E0B7
S1130A1001C034E1042E000C550B57FF03C051955F
S1130A2041955109E32E022F242FAE010E941F0588
S1130A30CE01DF91CF911F910F91EF900895A9E01E
S1130A40B0E0E5E2F5E00C9457076A01122FB02EEE
S1130A502BE3201720F0FF24F394F00E02C02CE3C4
S1130A60F22E0F2D27E0AE014F5F5F4F0E947906F3
S1130A70BC014981842F8970813031F0E1FC06C0CA
S1130A80E0FE06C090E205C09DE203C09BE201C007
S1130A9090E05E2D507143FF3CC0911102C083E091
S1130AA001C084E0811718F4212F281B01C020E025
S1130AB051110BC0F601822F30E2882319F03193D3
S1130AC08150FBCFC20ED11C20E0992329F0D6011E
S1130AD09C93F60131966F01C6010396E2FE0AC0AB
S1130AE03EE4D6013C9341E411964C93119712963F
S1130AF03C9306C03EE6F601308341E641833283EF
S1130B00FC01322F40E2332309F442C041933150B7
S1130B10FACF42FF44C0911102C083E001C084E0D7
S1130B20811718F4212F281B01C020E051110BC09C
S1130B30F601822F30E2882319F031938150FBCFE4
S1130B40C20ED11C20E0992329F0D6019C93F60112
S1130B5031966F01C6010396E2FE0BC039E4D6015B
S1130B603C933EE411963C93119736E412963C93E1
S1130B7007C039E6F60130833EE6318336E6328338
S1130B80FC01322F40E2332319F041933150FBCF63
S1130B90FC01E20FF11D10828EEF9FEFA6C021E051
S1130BA030E0911102C020E030E0161617061CF464
S1130BB0FB01319602C0E1E0F0E02E0F3F1FBB20A5
S1130BC021F0EB2DF0E0319602C0E0E0F0E02E0FD2
S1130BD03F1FE12FF0E02E173F071CF4121B212FBB
S1130BE001C020E08E2D887159F4F601822F30E285
S1130BF0882319F031938150FBCFC20ED11C20E021
S1130C00992329F0D6019C93F60131966F01511175
S1130C100BC0F601822F90E3882319F09193815041
S1130C20FBCFC20ED11C20E00F2D060F9A81342F6A
S1130C30307144FF03C0913309F40150101624F4B9
S1130C40093018F008E001C001E0AB0177FF02C0F1
S1130C5040E050E0FB01E41BF50BA1E0B0E0AC0F79
S1130C60BD1FEA0FFB1F8EE2A82E4B01801A9108CC
S1130C700B2D10E01195019511094F3FBFEF5B0754
S1130C8021F4D601AC9211966D01641775072CF00E
S1130C908416950614F4818101C080E34150510902
S1130CA03196D60111967D014017510724F0D601E3
S1130CB08C936701E2CF6417750739F4963320F4F7
S1130CC0953319F4311101C081E3F6018083F701F2
S1130CD0822F90E2882319F091938150FBCFF70182
S1130CE0E20FF11D108280E090E02996ECE00C9474
S1130CF07307283008F027E03327DA01990F311DF4
S1130D0087FD916000966105710539F432602E5FAC
S1130D103D9330E32A95E1F708959F3F30F0803802
S1130D207105610509F03C5F3C5F3D93913008F02B
S1130D308068911DDF93CF931F930F93FF92EF92DF
S1130D40192F987F9695E92F96959695E90FFF2789
S1130D50E255FF4F99273327EE24FF24A701E7012B
S1130D6005900894079428F4360FE71EF81E491FCF
S1130D70511D660F771F881F991F0694A1F70590D0
S1130D80079428F4E70EF81E491F561FC11D770F5C
S1130D90881F991F661F0694A1F70590079428F4ED
S1130DA0F80E491F561FC71FD11D880F991F661FB4
S1130DB0771F0694A1F70590079420F4490F561F56
S1130DC0C71FD81F990F661F771F881F0694A9F79E
S1130DD084911095177041F0D695C795579547950E
S1130DE0F794E7941A95C1F7E4E5F0E06894159058
S1130DF0159135916591959105907FE27395E11870
S1130E00F10A430B560BC90BD009C0F7E10CF11ED4
S1130E10431F561FC91FD01D7EF4703311F48A95E9
S1130E20E6CFE894015030F0080F0AF400270217C7
S1130E3008F4202F2395022F7A3328F079E37D9349
S1130E402A95E9F710C07D932A9589F6069497951B
S1130E506795379517951794E118F10A430B560BCC
S1130E60C90BD00998F023957E9173957A3308F0D5
S1130E7070E37C932013B8F77E9170617D9330F01A
S1130E80839571E37D9370E32A95E1F71124EF9044
S1130E90FF900F911F91CF91DF91992787FD909536
S1130EA008952F923F924F925F926F927F928F920A
S1130EB09F92AF92BF92CF92DF92EF92FF920F93E5
S1130EC01F93CF93DF93CDB7DEB7CA1BDB0B0FB6EF
S1130ED0F894DEBF0FBECDBF09942A8839884888AC
S1130EE05F846E847D848C849B84AA84B984C88442
S1130EF0DF80EE80FD800C811B81AA81B981CE0F39
S1130F00D11D0FB6F894DEBF0FBECDBFED0108951D
S1070F10F894FFCF7F
S1130F1400A8A145E3068000805765696768743AB0
S1090F2420006B670000D1
S9030000FC
